{
	"Loop.sol": {
		"Loop": {
			"abi": [
				{
					"inputs": [],
					"name": "forloop",
					"outputs": [],
					"stateMutability": "pure",
					"type": "function"
				},
				{
					"inputs": [],
					"name": "whileLoop",
					"outputs": [],
					"stateMutability": "pure",
					"type": "function"
				}
			],
			"devdoc": {
				"kind": "dev",
				"methods": {},
				"version": 1
			},
			"evm": {
				"assembly": "    /* \"Loop.sol\":56:405  contract Loop {... */\n  mstore(0x40, 0x80)\n  callvalue\n  dup1\n  iszero\n  tag_1\n  jumpi\n  0x00\n  dup1\n  revert\ntag_1:\n  pop\n  dataSize(sub_0)\n  dup1\n  dataOffset(sub_0)\n  0x00\n  codecopy\n  0x00\n  return\nstop\n\nsub_0: assembly {\n        /* \"Loop.sol\":56:405  contract Loop {... */\n      mstore(0x40, 0x80)\n      callvalue\n      dup1\n      iszero\n      tag_1\n      jumpi\n      0x00\n      dup1\n      revert\n    tag_1:\n      pop\n      jumpi(tag_2, lt(calldatasize, 0x04))\n      shr(0xe0, calldataload(0x00))\n      dup1\n      0xbc68f960\n      eq\n      tag_3\n      jumpi\n      dup1\n      0xe7c898ef\n      eq\n      tag_4\n      jumpi\n    tag_2:\n      0x00\n      dup1\n      revert\n        /* \"Loop.sol\":76:298  function forloop() external pure{... */\n    tag_3:\n      tag_5\n      tag_6\n      jump\t// in\n    tag_5:\n      stop\n        /* \"Loop.sol\":304:403  function whileLoop() external pure{... */\n    tag_4:\n      tag_7\n      tag_8\n      jump\t// in\n    tag_7:\n      stop\n        /* \"Loop.sol\":76:298  function forloop() external pure{... */\n    tag_6:\n        /* \"Loop.sol\":123:129  uint i */\n      0x00\n        /* \"Loop.sol\":119:292  for(uint i = 0 ; i < 10 ; i++){... */\n    tag_10:\n        /* \"Loop.sol\":140:142  10 */\n      0x0a\n        /* \"Loop.sol\":136:137  i */\n      dup2\n        /* \"Loop.sol\":136:142  i < 10 */\n      lt\n        /* \"Loop.sol\":119:292  for(uint i = 0 ; i < 10 ; i++){... */\n      iszero\n      tag_11\n      jumpi\n        /* \"Loop.sol\":172:173  3 */\n      0x03\n        /* \"Loop.sol\":167:168  i */\n      dup2\n        /* \"Loop.sol\":167:173  i == 3 */\n      eq\n        /* \"Loop.sol\":164:217  if(i == 3){... */\n      iszero\n      tag_13\n      jumpi\n        /* \"Loop.sol\":193:201  continue */\n      jump(tag_12)\n        /* \"Loop.sol\":164:217  if(i == 3){... */\n    tag_13:\n        /* \"Loop.sol\":239:240  5 */\n      0x05\n        /* \"Loop.sol\":234:235  i */\n      dup2\n        /* \"Loop.sol\":234:240  i == 5 */\n      eq\n        /* \"Loop.sol\":231:281  if(i == 5){... */\n      iszero\n      tag_14\n      jumpi\n        /* \"Loop.sol\":260:265  break */\n      jump(tag_11)\n        /* \"Loop.sol\":231:281  if(i == 5){... */\n    tag_14:\n        /* \"Loop.sol\":119:292  for(uint i = 0 ; i < 10 ; i++){... */\n    tag_12:\n        /* \"Loop.sol\":145:148  i++ */\n      dup1\n      dup1\n      tag_15\n      swap1\n      tag_16\n      jump\t// in\n    tag_15:\n      swap2\n      pop\n      pop\n        /* \"Loop.sol\":119:292  for(uint i = 0 ; i < 10 ; i++){... */\n      jump(tag_10)\n    tag_11:\n      pop\n        /* \"Loop.sol\":76:298  function forloop() external pure{... */\n      jump\t// out\n        /* \"Loop.sol\":304:403  function whileLoop() external pure{... */\n    tag_8:\n        /* \"Loop.sol\":348:354  uint j */\n      0x00\n        /* \"Loop.sol\":368:397  while(j > 10){... */\n    tag_18:\n        /* \"Loop.sol\":378:380  10 */\n      0x0a\n        /* \"Loop.sol\":374:375  j */\n      dup2\n        /* \"Loop.sol\":374:380  j > 10 */\n      gt\n        /* \"Loop.sol\":368:397  while(j > 10){... */\n      iszero\n      tag_19\n      jumpi\n        /* \"Loop.sol\":383:386  j++ */\n      dup1\n      dup1\n      tag_20\n      swap1\n      tag_16\n      jump\t// in\n    tag_20:\n      swap2\n      pop\n      pop\n        /* \"Loop.sol\":368:397  while(j > 10){... */\n      jump(tag_18)\n    tag_19:\n        /* \"Loop.sol\":338:403  {... */\n      pop\n        /* \"Loop.sol\":304:403  function whileLoop() external pure{... */\n      jump\t// out\n        /* \"#utility.yul\":7:84   */\n    tag_22:\n        /* \"#utility.yul\":44:51   */\n      0x00\n        /* \"#utility.yul\":73:78   */\n      dup2\n        /* \"#utility.yul\":62:78   */\n      swap1\n      pop\n        /* \"#utility.yul\":7:84   */\n      swap2\n      swap1\n      pop\n      jump\t// out\n        /* \"#utility.yul\":90:323   */\n    tag_16:\n        /* \"#utility.yul\":129:132   */\n      0x00\n        /* \"#utility.yul\":152:176   */\n      tag_25\n        /* \"#utility.yul\":170:175   */\n      dup3\n        /* \"#utility.yul\":152:176   */\n      tag_22\n      jump\t// in\n    tag_25:\n        /* \"#utility.yul\":143:176   */\n      swap2\n      pop\n        /* \"#utility.yul\":198:264   */\n      0xffffffffffffffffffffffffffffffffffffffffffffffffffffffffffffffff\n        /* \"#utility.yul\":191:196   */\n      dup3\n        /* \"#utility.yul\":188:265   */\n      eq\n        /* \"#utility.yul\":185:288   */\n      iszero\n      tag_26\n      jumpi\n        /* \"#utility.yul\":268:286   */\n      tag_27\n      tag_28\n      jump\t// in\n    tag_27:\n        /* \"#utility.yul\":185:288   */\n    tag_26:\n        /* \"#utility.yul\":315:316   */\n      0x01\n        /* \"#utility.yul\":308:313   */\n      dup3\n        /* \"#utility.yul\":304:317   */\n      add\n        /* \"#utility.yul\":297:317   */\n      swap1\n      pop\n        /* \"#utility.yul\":90:323   */\n      swap2\n      swap1\n      pop\n      jump\t// out\n        /* \"#utility.yul\":329:509   */\n    tag_28:\n        /* \"#utility.yul\":377:454   */\n      0x4e487b7100000000000000000000000000000000000000000000000000000000\n        /* \"#utility.yul\":374:375   */\n      0x00\n        /* \"#utility.yul\":367:455   */\n      mstore\n        /* \"#utility.yul\":474:478   */\n      0x11\n        /* \"#utility.yul\":471:472   */\n      0x04\n        /* \"#utility.yul\":464:479   */\n      mstore\n        /* \"#utility.yul\":498:502   */\n      0x24\n        /* \"#utility.yul\":495:496   */\n      0x00\n        /* \"#utility.yul\":488:503   */\n      revert\n\n    auxdata: 0xa264697066735822122048fd389e1f47b09069b7e529a72dff5ee98c42eb1b2d1a8e549446bef745857164736f6c63430008070033\n}\n",
				"bytecode": {
					"linkReferences": {},
					"object": "608060405234801561001057600080fd5b50610168806100206000396000f3fe608060405234801561001057600080fd5b50600436106100365760003560e01c8063bc68f9601461003b578063e7c898ef14610045575b600080fd5b61004361004f565b005b61004d61008e565b005b60005b600a81101561008b57600381141561006957610078565b60058114156100775761008b565b5b8080610083906100ba565b915050610052565b50565b60005b600a8111156100ad5780806100a5906100ba565b915050610091565b50565b6000819050919050565b60006100c5826100b0565b91507fffffffffffffffffffffffffffffffffffffffffffffffffffffffffffffffff8214156100f8576100f7610103565b5b600182019050919050565b7f4e487b7100000000000000000000000000000000000000000000000000000000600052601160045260246000fdfea264697066735822122048fd389e1f47b09069b7e529a72dff5ee98c42eb1b2d1a8e549446bef745857164736f6c63430008070033",
					"opcodes": "PUSH1 0x80 PUSH1 0x40 MSTORE CALLVALUE DUP1 ISZERO PUSH2 0x10 JUMPI PUSH1 0x0 DUP1 REVERT JUMPDEST POP PUSH2 0x168 DUP1 PUSH2 0x20 PUSH1 0x0 CODECOPY PUSH1 0x0 RETURN INVALID PUSH1 0x80 PUSH1 0x40 MSTORE CALLVALUE DUP1 ISZERO PUSH2 0x10 JUMPI PUSH1 0x0 DUP1 REVERT JUMPDEST POP PUSH1 0x4 CALLDATASIZE LT PUSH2 0x36 JUMPI PUSH1 0x0 CALLDATALOAD PUSH1 0xE0 SHR DUP1 PUSH4 0xBC68F960 EQ PUSH2 0x3B JUMPI DUP1 PUSH4 0xE7C898EF EQ PUSH2 0x45 JUMPI JUMPDEST PUSH1 0x0 DUP1 REVERT JUMPDEST PUSH2 0x43 PUSH2 0x4F JUMP JUMPDEST STOP JUMPDEST PUSH2 0x4D PUSH2 0x8E JUMP JUMPDEST STOP JUMPDEST PUSH1 0x0 JUMPDEST PUSH1 0xA DUP2 LT ISZERO PUSH2 0x8B JUMPI PUSH1 0x3 DUP2 EQ ISZERO PUSH2 0x69 JUMPI PUSH2 0x78 JUMP JUMPDEST PUSH1 0x5 DUP2 EQ ISZERO PUSH2 0x77 JUMPI PUSH2 0x8B JUMP JUMPDEST JUMPDEST DUP1 DUP1 PUSH2 0x83 SWAP1 PUSH2 0xBA JUMP JUMPDEST SWAP2 POP POP PUSH2 0x52 JUMP JUMPDEST POP JUMP JUMPDEST PUSH1 0x0 JUMPDEST PUSH1 0xA DUP2 GT ISZERO PUSH2 0xAD JUMPI DUP1 DUP1 PUSH2 0xA5 SWAP1 PUSH2 0xBA JUMP JUMPDEST SWAP2 POP POP PUSH2 0x91 JUMP JUMPDEST POP JUMP JUMPDEST PUSH1 0x0 DUP2 SWAP1 POP SWAP2 SWAP1 POP JUMP JUMPDEST PUSH1 0x0 PUSH2 0xC5 DUP3 PUSH2 0xB0 JUMP JUMPDEST SWAP2 POP PUSH32 0xFFFFFFFFFFFFFFFFFFFFFFFFFFFFFFFFFFFFFFFFFFFFFFFFFFFFFFFFFFFFFFFF DUP3 EQ ISZERO PUSH2 0xF8 JUMPI PUSH2 0xF7 PUSH2 0x103 JUMP JUMPDEST JUMPDEST PUSH1 0x1 DUP3 ADD SWAP1 POP SWAP2 SWAP1 POP JUMP JUMPDEST PUSH32 0x4E487B7100000000000000000000000000000000000000000000000000000000 PUSH1 0x0 MSTORE PUSH1 0x11 PUSH1 0x4 MSTORE PUSH1 0x24 PUSH1 0x0 REVERT INVALID LOG2 PUSH5 0x6970667358 0x22 SLT KECCAK256 BASEFEE REVERT CODESIZE SWAP15 0x1F SELFBALANCE 0xB0 SWAP1 PUSH10 0xB7E529A72DFF5EE98C42 0xEB SHL 0x2D BYTE DUP15 SLOAD SWAP5 CHAINID 0xBE 0xF7 GASLIMIT DUP6 PUSH18 0x64736F6C6343000807003300000000000000 "
				},
				"gasEstimates": {
					"creation": {
						"codeDepositCost": "72000",
						"executionCost": "123",
						"totalCost": "72123"
					},
					"external": {
						"forloop()": "infinite",
						"whileLoop()": "176"
					}
				},
				"methodIdentifiers": {
					"forloop()": "bc68f960",
					"whileLoop()": "e7c898ef"
				}
			},
			"storageLayout": {
				"storage": [],
				"types": null
			},
			"userdoc": {
				"kind": "user",
				"methods": {},
				"version": 1
			}
		}
	}
}