{
	"Varaiable.sol": {
		"Variable": {
			"abi": [
				{
					"inputs": [],
					"name": "foo",
					"outputs": [
						{
							"internalType": "uint256",
							"name": "",
							"type": "uint256"
						}
					],
					"stateMutability": "pure",
					"type": "function"
				},
				{
					"inputs": [],
					"name": "golobalVars",
					"outputs": [
						{
							"internalType": "address",
							"name": "",
							"type": "address"
						},
						{
							"internalType": "uint256",
							"name": "",
							"type": "uint256"
						},
						{
							"internalType": "uint256",
							"name": "",
							"type": "uint256"
						}
					],
					"stateMutability": "view",
					"type": "function"
				},
				{
					"inputs": [],
					"name": "stateVariable",
					"outputs": [
						{
							"internalType": "uint256",
							"name": "",
							"type": "uint256"
						}
					],
					"stateMutability": "view",
					"type": "function"
				}
			],
			"devdoc": {
				"kind": "dev",
				"methods": {},
				"version": 1
			},
			"evm": {
				"assembly": "    /* \"Varaiable.sol\":56:455  contract Variable {... */\n  mstore(0x40, 0x80)\n    /* \"Varaiable.sol\":108:109  3 */\n  0x03\n    /* \"Varaiable.sol\":80:109  uint public stateVariable = 3 */\n  0x00\n  sstore\n    /* \"Varaiable.sol\":56:455  contract Variable {... */\n  callvalue\n  dup1\n  iszero\n  tag_1\n  jumpi\n  0x00\n  dup1\n  revert\ntag_1:\n  pop\n  dataSize(sub_0)\n  dup1\n  dataOffset(sub_0)\n  0x00\n  codecopy\n  0x00\n  return\nstop\n\nsub_0: assembly {\n        /* \"Varaiable.sol\":56:455  contract Variable {... */\n      mstore(0x40, 0x80)\n      callvalue\n      dup1\n      iszero\n      tag_1\n      jumpi\n      0x00\n      dup1\n      revert\n    tag_1:\n      pop\n      jumpi(tag_2, lt(calldatasize, 0x04))\n      shr(0xe0, calldataload(0x00))\n      dup1\n      0xafcfba1a\n      eq\n      tag_3\n      jumpi\n      dup1\n      0xc2985578\n      eq\n      tag_4\n      jumpi\n      dup1\n      0xe1967eae\n      eq\n      tag_5\n      jumpi\n    tag_2:\n      0x00\n      dup1\n      revert\n        /* \"Varaiable.sol\":206:453  function golobalVars() external view returns(address , uint , uint){... */\n    tag_3:\n      tag_6\n      tag_7\n      jump\t// in\n    tag_6:\n      mload(0x40)\n      tag_8\n      swap4\n      swap3\n      swap2\n      swap1\n      tag_9\n      jump\t// in\n    tag_8:\n      mload(0x40)\n      dup1\n      swap2\n      sub\n      swap1\n      return\n        /* \"Varaiable.sol\":117:200  function foo() external pure returns(uint) {... */\n    tag_4:\n      tag_10\n      tag_11\n      jump\t// in\n    tag_10:\n      mload(0x40)\n      tag_12\n      swap2\n      swap1\n      tag_13\n      jump\t// in\n    tag_12:\n      mload(0x40)\n      dup1\n      swap2\n      sub\n      swap1\n      return\n        /* \"Varaiable.sol\":80:109  uint public stateVariable = 3 */\n    tag_5:\n      tag_14\n      tag_15\n      jump\t// in\n    tag_14:\n      mload(0x40)\n      tag_16\n      swap2\n      swap1\n      tag_13\n      jump\t// in\n    tag_16:\n      mload(0x40)\n      dup1\n      swap2\n      sub\n      swap1\n      return\n        /* \"Varaiable.sol\":206:453  function golobalVars() external view returns(address , uint , uint){... */\n    tag_7:\n        /* \"Varaiable.sol\":251:258  address */\n      0x00\n        /* \"Varaiable.sol\":261:265  uint */\n      dup1\n        /* \"Varaiable.sol\":268:272  uint */\n      0x00\n        /* \"Varaiable.sol\":283:300  address myAddress */\n      dup1\n        /* \"Varaiable.sol\":303:313  msg.sender */\n      caller\n        /* \"Varaiable.sol\":283:313  address myAddress = msg.sender */\n      swap1\n      pop\n        /* \"Varaiable.sol\":324:338  uint timestamp */\n      0x00\n        /* \"Varaiable.sol\":341:356  block.timestamp */\n      timestamp\n        /* \"Varaiable.sol\":324:356  uint timestamp = block.timestamp */\n      swap1\n      pop\n        /* \"Varaiable.sol\":366:379  uint blockNum */\n      0x00\n        /* \"Varaiable.sol\":382:394  block.number */\n      number\n        /* \"Varaiable.sol\":366:394  uint blockNum = block.number */\n      swap1\n      pop\n        /* \"Varaiable.sol\":413:422  myAddress */\n      dup3\n        /* \"Varaiable.sol\":425:434  timestamp */\n      dup3\n        /* \"Varaiable.sol\":437:445  blockNum */\n      dup3\n        /* \"Varaiable.sol\":405:446  return (myAddress , timestamp , blockNum) */\n      swap6\n      pop\n      swap6\n      pop\n      swap6\n      pop\n      pop\n      pop\n      pop\n        /* \"Varaiable.sol\":206:453  function golobalVars() external view returns(address , uint , uint){... */\n      swap1\n      swap2\n      swap3\n      jump\t// out\n        /* \"Varaiable.sol\":117:200  function foo() external pure returns(uint) {... */\n    tag_11:\n        /* \"Varaiable.sol\":154:158  uint */\n      0x00\n        /* \"Varaiable.sol\":170:188  uint localVariable */\n      dup1\n        /* \"Varaiable.sol\":191:192  4 */\n      0x04\n        /* \"Varaiable.sol\":170:192  uint localVariable = 4 */\n      swap1\n      pop\n        /* \"Varaiable.sol\":160:200  {... */\n      pop\n        /* \"Varaiable.sol\":117:200  function foo() external pure returns(uint) {... */\n      swap1\n      jump\t// out\n        /* \"Varaiable.sol\":80:109  uint public stateVariable = 3 */\n    tag_15:\n      sload(0x00)\n      dup2\n      jump\t// out\n        /* \"#utility.yul\":7:125   */\n    tag_20:\n        /* \"#utility.yul\":94:118   */\n      tag_22\n        /* \"#utility.yul\":112:117   */\n      dup2\n        /* \"#utility.yul\":94:118   */\n      tag_23\n      jump\t// in\n    tag_22:\n        /* \"#utility.yul\":89:92   */\n      dup3\n        /* \"#utility.yul\":82:119   */\n      mstore\n        /* \"#utility.yul\":7:125   */\n      pop\n      pop\n      jump\t// out\n        /* \"#utility.yul\":131:249   */\n    tag_24:\n        /* \"#utility.yul\":218:242   */\n      tag_26\n        /* \"#utility.yul\":236:241   */\n      dup2\n        /* \"#utility.yul\":218:242   */\n      tag_27\n      jump\t// in\n    tag_26:\n        /* \"#utility.yul\":213:216   */\n      dup3\n        /* \"#utility.yul\":206:243   */\n      mstore\n        /* \"#utility.yul\":131:249   */\n      pop\n      pop\n      jump\t// out\n        /* \"#utility.yul\":255:697   */\n    tag_9:\n        /* \"#utility.yul\":404:408   */\n      0x00\n        /* \"#utility.yul\":442:444   */\n      0x60\n        /* \"#utility.yul\":431:440   */\n      dup3\n        /* \"#utility.yul\":427:445   */\n      add\n        /* \"#utility.yul\":419:445   */\n      swap1\n      pop\n        /* \"#utility.yul\":455:526   */\n      tag_29\n        /* \"#utility.yul\":523:524   */\n      0x00\n        /* \"#utility.yul\":512:521   */\n      dup4\n        /* \"#utility.yul\":508:525   */\n      add\n        /* \"#utility.yul\":499:505   */\n      dup7\n        /* \"#utility.yul\":455:526   */\n      tag_20\n      jump\t// in\n    tag_29:\n        /* \"#utility.yul\":536:608   */\n      tag_30\n        /* \"#utility.yul\":604:606   */\n      0x20\n        /* \"#utility.yul\":593:602   */\n      dup4\n        /* \"#utility.yul\":589:607   */\n      add\n        /* \"#utility.yul\":580:586   */\n      dup6\n        /* \"#utility.yul\":536:608   */\n      tag_24\n      jump\t// in\n    tag_30:\n        /* \"#utility.yul\":618:690   */\n      tag_31\n        /* \"#utility.yul\":686:688   */\n      0x40\n        /* \"#utility.yul\":675:684   */\n      dup4\n        /* \"#utility.yul\":671:689   */\n      add\n        /* \"#utility.yul\":662:668   */\n      dup5\n        /* \"#utility.yul\":618:690   */\n      tag_24\n      jump\t// in\n    tag_31:\n        /* \"#utility.yul\":255:697   */\n      swap5\n      swap4\n      pop\n      pop\n      pop\n      pop\n      jump\t// out\n        /* \"#utility.yul\":703:925   */\n    tag_13:\n        /* \"#utility.yul\":796:800   */\n      0x00\n        /* \"#utility.yul\":834:836   */\n      0x20\n        /* \"#utility.yul\":823:832   */\n      dup3\n        /* \"#utility.yul\":819:837   */\n      add\n        /* \"#utility.yul\":811:837   */\n      swap1\n      pop\n        /* \"#utility.yul\":847:918   */\n      tag_33\n        /* \"#utility.yul\":915:916   */\n      0x00\n        /* \"#utility.yul\":904:913   */\n      dup4\n        /* \"#utility.yul\":900:917   */\n      add\n        /* \"#utility.yul\":891:897   */\n      dup5\n        /* \"#utility.yul\":847:918   */\n      tag_24\n      jump\t// in\n    tag_33:\n        /* \"#utility.yul\":703:925   */\n      swap3\n      swap2\n      pop\n      pop\n      jump\t// out\n        /* \"#utility.yul\":931:1027   */\n    tag_23:\n        /* \"#utility.yul\":968:975   */\n      0x00\n        /* \"#utility.yul\":997:1021   */\n      tag_35\n        /* \"#utility.yul\":1015:1020   */\n      dup3\n        /* \"#utility.yul\":997:1021   */\n      tag_36\n      jump\t// in\n    tag_35:\n        /* \"#utility.yul\":986:1021   */\n      swap1\n      pop\n        /* \"#utility.yul\":931:1027   */\n      swap2\n      swap1\n      pop\n      jump\t// out\n        /* \"#utility.yul\":1033:1159   */\n    tag_36:\n        /* \"#utility.yul\":1070:1077   */\n      0x00\n        /* \"#utility.yul\":1110:1152   */\n      0xffffffffffffffffffffffffffffffffffffffff\n        /* \"#utility.yul\":1103:1108   */\n      dup3\n        /* \"#utility.yul\":1099:1153   */\n      and\n        /* \"#utility.yul\":1088:1153   */\n      swap1\n      pop\n        /* \"#utility.yul\":1033:1159   */\n      swap2\n      swap1\n      pop\n      jump\t// out\n        /* \"#utility.yul\":1165:1242   */\n    tag_27:\n        /* \"#utility.yul\":1202:1209   */\n      0x00\n        /* \"#utility.yul\":1231:1236   */\n      dup2\n        /* \"#utility.yul\":1220:1236   */\n      swap1\n      pop\n        /* \"#utility.yul\":1165:1242   */\n      swap2\n      swap1\n      pop\n      jump\t// out\n\n    auxdata: 0xa26469706673582212208c21815af4c600a984188d706752088b430eff16e4e2ce8471bdfe857514e4e564736f6c63430008070033\n}\n",
				"bytecode": {
					"linkReferences": {},
					"object": "6080604052600360005534801561001557600080fd5b506101b9806100256000396000f3fe608060405234801561001057600080fd5b50600436106100415760003560e01c8063afcfba1a14610046578063c298557814610066578063e1967eae14610084575b600080fd5b61004e6100a2565b60405161005d939291906100f5565b60405180910390f35b61006e6100c6565b60405161007b919061012c565b60405180910390f35b61008c6100d1565b604051610099919061012c565b60405180910390f35b60008060008033905060004290506000439050828282955095509550505050909192565b600080600490505090565b60005481565b6100e081610147565b82525050565b6100ef81610179565b82525050565b600060608201905061010a60008301866100d7565b61011760208301856100e6565b61012460408301846100e6565b949350505050565b600060208201905061014160008301846100e6565b92915050565b600061015282610159565b9050919050565b600073ffffffffffffffffffffffffffffffffffffffff82169050919050565b600081905091905056fea26469706673582212208c21815af4c600a984188d706752088b430eff16e4e2ce8471bdfe857514e4e564736f6c63430008070033",
					"opcodes": "PUSH1 0x80 PUSH1 0x40 MSTORE PUSH1 0x3 PUSH1 0x0 SSTORE CALLVALUE DUP1 ISZERO PUSH2 0x15 JUMPI PUSH1 0x0 DUP1 REVERT JUMPDEST POP PUSH2 0x1B9 DUP1 PUSH2 0x25 PUSH1 0x0 CODECOPY PUSH1 0x0 RETURN INVALID PUSH1 0x80 PUSH1 0x40 MSTORE CALLVALUE DUP1 ISZERO PUSH2 0x10 JUMPI PUSH1 0x0 DUP1 REVERT JUMPDEST POP PUSH1 0x4 CALLDATASIZE LT PUSH2 0x41 JUMPI PUSH1 0x0 CALLDATALOAD PUSH1 0xE0 SHR DUP1 PUSH4 0xAFCFBA1A EQ PUSH2 0x46 JUMPI DUP1 PUSH4 0xC2985578 EQ PUSH2 0x66 JUMPI DUP1 PUSH4 0xE1967EAE EQ PUSH2 0x84 JUMPI JUMPDEST PUSH1 0x0 DUP1 REVERT JUMPDEST PUSH2 0x4E PUSH2 0xA2 JUMP JUMPDEST PUSH1 0x40 MLOAD PUSH2 0x5D SWAP4 SWAP3 SWAP2 SWAP1 PUSH2 0xF5 JUMP JUMPDEST PUSH1 0x40 MLOAD DUP1 SWAP2 SUB SWAP1 RETURN JUMPDEST PUSH2 0x6E PUSH2 0xC6 JUMP JUMPDEST PUSH1 0x40 MLOAD PUSH2 0x7B SWAP2 SWAP1 PUSH2 0x12C JUMP JUMPDEST PUSH1 0x40 MLOAD DUP1 SWAP2 SUB SWAP1 RETURN JUMPDEST PUSH2 0x8C PUSH2 0xD1 JUMP JUMPDEST PUSH1 0x40 MLOAD PUSH2 0x99 SWAP2 SWAP1 PUSH2 0x12C JUMP JUMPDEST PUSH1 0x40 MLOAD DUP1 SWAP2 SUB SWAP1 RETURN JUMPDEST PUSH1 0x0 DUP1 PUSH1 0x0 DUP1 CALLER SWAP1 POP PUSH1 0x0 TIMESTAMP SWAP1 POP PUSH1 0x0 NUMBER SWAP1 POP DUP3 DUP3 DUP3 SWAP6 POP SWAP6 POP SWAP6 POP POP POP POP SWAP1 SWAP2 SWAP3 JUMP JUMPDEST PUSH1 0x0 DUP1 PUSH1 0x4 SWAP1 POP POP SWAP1 JUMP JUMPDEST PUSH1 0x0 SLOAD DUP2 JUMP JUMPDEST PUSH2 0xE0 DUP2 PUSH2 0x147 JUMP JUMPDEST DUP3 MSTORE POP POP JUMP JUMPDEST PUSH2 0xEF DUP2 PUSH2 0x179 JUMP JUMPDEST DUP3 MSTORE POP POP JUMP JUMPDEST PUSH1 0x0 PUSH1 0x60 DUP3 ADD SWAP1 POP PUSH2 0x10A PUSH1 0x0 DUP4 ADD DUP7 PUSH2 0xD7 JUMP JUMPDEST PUSH2 0x117 PUSH1 0x20 DUP4 ADD DUP6 PUSH2 0xE6 JUMP JUMPDEST PUSH2 0x124 PUSH1 0x40 DUP4 ADD DUP5 PUSH2 0xE6 JUMP JUMPDEST SWAP5 SWAP4 POP POP POP POP JUMP JUMPDEST PUSH1 0x0 PUSH1 0x20 DUP3 ADD SWAP1 POP PUSH2 0x141 PUSH1 0x0 DUP4 ADD DUP5 PUSH2 0xE6 JUMP JUMPDEST SWAP3 SWAP2 POP POP JUMP JUMPDEST PUSH1 0x0 PUSH2 0x152 DUP3 PUSH2 0x159 JUMP JUMPDEST SWAP1 POP SWAP2 SWAP1 POP JUMP JUMPDEST PUSH1 0x0 PUSH20 0xFFFFFFFFFFFFFFFFFFFFFFFFFFFFFFFFFFFFFFFF DUP3 AND SWAP1 POP SWAP2 SWAP1 POP JUMP JUMPDEST PUSH1 0x0 DUP2 SWAP1 POP SWAP2 SWAP1 POP JUMP INVALID LOG2 PUSH5 0x6970667358 0x22 SLT KECCAK256 DUP13 0x21 DUP2 GAS DELEGATECALL 0xC6 STOP 0xA9 DUP5 XOR DUP14 PUSH17 0x6752088B430EFF16E4E2CE8471BDFE8575 EQ 0xE4 0xE5 PUSH5 0x736F6C6343 STOP ADDMOD SMOD STOP CALLER "
				},
				"gasEstimates": {
					"creation": {
						"codeDepositCost": "88200",
						"executionCost": "22241",
						"totalCost": "110441"
					},
					"external": {
						"foo()": "342",
						"golobalVars()": "infinite",
						"stateVariable()": "2451"
					}
				},
				"methodIdentifiers": {
					"foo()": "c2985578",
					"golobalVars()": "afcfba1a",
					"stateVariable()": "e1967eae"
				}
			},
			"storageLayout": {
				"storage": [
					{
						"astId": 4,
						"contract": "Varaiable.sol:Variable",
						"label": "stateVariable",
						"offset": 0,
						"slot": "0",
						"type": "t_uint256"
					}
				],
				"types": {
					"t_uint256": {
						"encoding": "inplace",
						"label": "uint256",
						"numberOfBytes": "32"
					}
				}
			},
			"userdoc": {
				"kind": "user",
				"methods": {},
				"version": 1
			}
		}
	}
}