{
	"Loop.sol": {
		"Loop": {
			"abi": [
				{
					"inputs": [],
					"name": "forloop",
					"outputs": [],
					"stateMutability": "pure",
					"type": "function"
				}
			],
			"devdoc": {
				"kind": "dev",
				"methods": {},
				"version": 1
			},
			"evm": {
				"assembly": "    /* \"Loop.sol\":56:300  contract Loop {... */\n  mstore(0x40, 0x80)\n  callvalue\n  dup1\n  iszero\n  tag_1\n  jumpi\n  0x00\n  dup1\n  revert\ntag_1:\n  pop\n  dataSize(sub_0)\n  dup1\n  dataOffset(sub_0)\n  0x00\n  codecopy\n  0x00\n  return\nstop\n\nsub_0: assembly {\n        /* \"Loop.sol\":56:300  contract Loop {... */\n      mstore(0x40, 0x80)\n      callvalue\n      dup1\n      iszero\n      tag_1\n      jumpi\n      0x00\n      dup1\n      revert\n    tag_1:\n      pop\n      jumpi(tag_2, lt(calldatasize, 0x04))\n      shr(0xe0, calldataload(0x00))\n      dup1\n      0xbc68f960\n      eq\n      tag_3\n      jumpi\n    tag_2:\n      0x00\n      dup1\n      revert\n        /* \"Loop.sol\":76:298  function forloop() external pure{... */\n    tag_3:\n      tag_4\n      tag_5\n      jump\t// in\n    tag_4:\n      stop\n    tag_5:\n        /* \"Loop.sol\":123:129  uint i */\n      0x00\n        /* \"Loop.sol\":119:292  for(uint i = 0 ; i < 10 ; i++){... */\n    tag_7:\n        /* \"Loop.sol\":140:142  10 */\n      0x0a\n        /* \"Loop.sol\":136:137  i */\n      dup2\n        /* \"Loop.sol\":136:142  i < 10 */\n      lt\n        /* \"Loop.sol\":119:292  for(uint i = 0 ; i < 10 ; i++){... */\n      iszero\n      tag_8\n      jumpi\n        /* \"Loop.sol\":172:173  3 */\n      0x03\n        /* \"Loop.sol\":167:168  i */\n      dup2\n        /* \"Loop.sol\":167:173  i == 3 */\n      eq\n        /* \"Loop.sol\":164:217  if(i == 3){... */\n      iszero\n      tag_10\n      jumpi\n        /* \"Loop.sol\":193:201  continue */\n      jump(tag_9)\n        /* \"Loop.sol\":164:217  if(i == 3){... */\n    tag_10:\n        /* \"Loop.sol\":239:240  5 */\n      0x05\n        /* \"Loop.sol\":234:235  i */\n      dup2\n        /* \"Loop.sol\":234:240  i == 5 */\n      eq\n        /* \"Loop.sol\":231:281  if(i == 5){... */\n      iszero\n      tag_11\n      jumpi\n        /* \"Loop.sol\":260:265  break */\n      jump(tag_8)\n        /* \"Loop.sol\":231:281  if(i == 5){... */\n    tag_11:\n        /* \"Loop.sol\":119:292  for(uint i = 0 ; i < 10 ; i++){... */\n    tag_9:\n        /* \"Loop.sol\":145:148  i++ */\n      dup1\n      dup1\n      tag_12\n      swap1\n      tag_13\n      jump\t// in\n    tag_12:\n      swap2\n      pop\n      pop\n        /* \"Loop.sol\":119:292  for(uint i = 0 ; i < 10 ; i++){... */\n      jump(tag_7)\n    tag_8:\n      pop\n        /* \"Loop.sol\":76:298  function forloop() external pure{... */\n      jump\t// out\n        /* \"#utility.yul\":7:84   */\n    tag_15:\n        /* \"#utility.yul\":44:51   */\n      0x00\n        /* \"#utility.yul\":73:78   */\n      dup2\n        /* \"#utility.yul\":62:78   */\n      swap1\n      pop\n        /* \"#utility.yul\":7:84   */\n      swap2\n      swap1\n      pop\n      jump\t// out\n        /* \"#utility.yul\":90:323   */\n    tag_13:\n        /* \"#utility.yul\":129:132   */\n      0x00\n        /* \"#utility.yul\":152:176   */\n      tag_18\n        /* \"#utility.yul\":170:175   */\n      dup3\n        /* \"#utility.yul\":152:176   */\n      tag_15\n      jump\t// in\n    tag_18:\n        /* \"#utility.yul\":143:176   */\n      swap2\n      pop\n        /* \"#utility.yul\":198:264   */\n      0xffffffffffffffffffffffffffffffffffffffffffffffffffffffffffffffff\n        /* \"#utility.yul\":191:196   */\n      dup3\n        /* \"#utility.yul\":188:265   */\n      eq\n        /* \"#utility.yul\":185:288   */\n      iszero\n      tag_19\n      jumpi\n        /* \"#utility.yul\":268:286   */\n      tag_20\n      tag_21\n      jump\t// in\n    tag_20:\n        /* \"#utility.yul\":185:288   */\n    tag_19:\n        /* \"#utility.yul\":315:316   */\n      0x01\n        /* \"#utility.yul\":308:313   */\n      dup3\n        /* \"#utility.yul\":304:317   */\n      add\n        /* \"#utility.yul\":297:317   */\n      swap1\n      pop\n        /* \"#utility.yul\":90:323   */\n      swap2\n      swap1\n      pop\n      jump\t// out\n        /* \"#utility.yul\":329:509   */\n    tag_21:\n        /* \"#utility.yul\":377:454   */\n      0x4e487b7100000000000000000000000000000000000000000000000000000000\n        /* \"#utility.yul\":374:375   */\n      0x00\n        /* \"#utility.yul\":367:455   */\n      mstore\n        /* \"#utility.yul\":474:478   */\n      0x11\n        /* \"#utility.yul\":471:472   */\n      0x04\n        /* \"#utility.yul\":464:479   */\n      mstore\n        /* \"#utility.yul\":498:502   */\n      0x24\n        /* \"#utility.yul\":495:496   */\n      0x00\n        /* \"#utility.yul\":488:503   */\n      revert\n\n    auxdata: 0xa2646970667358221220b36f7f8fc42d772fee489ed3dc872e48c6ea656dad38fe94b60ae5b06a212e2d64736f6c63430008070033\n}\n",
				"bytecode": {
					"linkReferences": {},
					"object": "608060405234801561001057600080fd5b5061011f806100206000396000f3fe6080604052348015600f57600080fd5b506004361060285760003560e01c8063bc68f96014602d575b600080fd5b60336035565b005b60005b600a8110156069576003811415604c576059565b60058114156058576069565b5b80806062906076565b9150506038565b50565b6000819050919050565b6000607f82606c565b91507fffffffffffffffffffffffffffffffffffffffffffffffffffffffffffffffff82141560af5760ae60ba565b5b600182019050919050565b7f4e487b7100000000000000000000000000000000000000000000000000000000600052601160045260246000fdfea2646970667358221220b36f7f8fc42d772fee489ed3dc872e48c6ea656dad38fe94b60ae5b06a212e2d64736f6c63430008070033",
					"opcodes": "PUSH1 0x80 PUSH1 0x40 MSTORE CALLVALUE DUP1 ISZERO PUSH2 0x10 JUMPI PUSH1 0x0 DUP1 REVERT JUMPDEST POP PUSH2 0x11F DUP1 PUSH2 0x20 PUSH1 0x0 CODECOPY PUSH1 0x0 RETURN INVALID PUSH1 0x80 PUSH1 0x40 MSTORE CALLVALUE DUP1 ISZERO PUSH1 0xF JUMPI PUSH1 0x0 DUP1 REVERT JUMPDEST POP PUSH1 0x4 CALLDATASIZE LT PUSH1 0x28 JUMPI PUSH1 0x0 CALLDATALOAD PUSH1 0xE0 SHR DUP1 PUSH4 0xBC68F960 EQ PUSH1 0x2D JUMPI JUMPDEST PUSH1 0x0 DUP1 REVERT JUMPDEST PUSH1 0x33 PUSH1 0x35 JUMP JUMPDEST STOP JUMPDEST PUSH1 0x0 JUMPDEST PUSH1 0xA DUP2 LT ISZERO PUSH1 0x69 JUMPI PUSH1 0x3 DUP2 EQ ISZERO PUSH1 0x4C JUMPI PUSH1 0x59 JUMP JUMPDEST PUSH1 0x5 DUP2 EQ ISZERO PUSH1 0x58 JUMPI PUSH1 0x69 JUMP JUMPDEST JUMPDEST DUP1 DUP1 PUSH1 0x62 SWAP1 PUSH1 0x76 JUMP JUMPDEST SWAP2 POP POP PUSH1 0x38 JUMP JUMPDEST POP JUMP JUMPDEST PUSH1 0x0 DUP2 SWAP1 POP SWAP2 SWAP1 POP JUMP JUMPDEST PUSH1 0x0 PUSH1 0x7F DUP3 PUSH1 0x6C JUMP JUMPDEST SWAP2 POP PUSH32 0xFFFFFFFFFFFFFFFFFFFFFFFFFFFFFFFFFFFFFFFFFFFFFFFFFFFFFFFFFFFFFFFF DUP3 EQ ISZERO PUSH1 0xAF JUMPI PUSH1 0xAE PUSH1 0xBA JUMP JUMPDEST JUMPDEST PUSH1 0x1 DUP3 ADD SWAP1 POP SWAP2 SWAP1 POP JUMP JUMPDEST PUSH32 0x4E487B7100000000000000000000000000000000000000000000000000000000 PUSH1 0x0 MSTORE PUSH1 0x11 PUSH1 0x4 MSTORE PUSH1 0x24 PUSH1 0x0 REVERT INVALID LOG2 PUSH5 0x6970667358 0x22 SLT KECCAK256 0xB3 PUSH16 0x7F8FC42D772FEE489ED3DC872E48C6EA PUSH6 0x6DAD38FE94B6 EXP 0xE5 0xB0 PUSH11 0x212E2D64736F6C63430008 SMOD STOP CALLER "
				},
				"gasEstimates": {
					"creation": {
						"codeDepositCost": "57400",
						"executionCost": "105",
						"totalCost": "57505"
					},
					"external": {
						"forloop()": "infinite"
					}
				},
				"methodIdentifiers": {
					"forloop()": "bc68f960"
				}
			},
			"storageLayout": {
				"storage": [],
				"types": null
			},
			"userdoc": {
				"kind": "user",
				"methods": {},
				"version": 1
			}
		}
	}
}